{
  "contractName": "Meeting",
  "abi": [
    {
      "inputs": [
        {
          "internalType": "uint256",
          "name": "tb",
          "type": "uint256"
        },
        {
          "internalType": "uint256",
          "name": "te",
          "type": "uint256"
        }
      ],
      "payable": false,
      "stateMutability": "nonpayable",
      "type": "constructor"
    },
    {
      "constant": true,
      "inputs": [
        {
          "internalType": "address",
          "name": "",
          "type": "address"
        }
      ],
      "name": "cyphered_votes",
      "outputs": [
        {
          "internalType": "string",
          "name": "",
          "type": "string"
        }
      ],
      "payable": false,
      "stateMutability": "view",
      "type": "function"
    },
    {
      "constant": true,
      "inputs": [],
      "name": "owner",
      "outputs": [
        {
          "internalType": "address",
          "name": "",
          "type": "address"
        }
      ],
      "payable": false,
      "stateMutability": "view",
      "type": "function"
    },
    {
      "constant": true,
      "inputs": [],
      "name": "time_begin",
      "outputs": [
        {
          "internalType": "uint256",
          "name": "",
          "type": "uint256"
        }
      ],
      "payable": false,
      "stateMutability": "view",
      "type": "function"
    },
    {
      "constant": true,
      "inputs": [],
      "name": "time_end",
      "outputs": [
        {
          "internalType": "uint256",
          "name": "",
          "type": "uint256"
        }
      ],
      "payable": false,
      "stateMutability": "view",
      "type": "function"
    },
    {
      "constant": true,
      "inputs": [],
      "name": "votes_against",
      "outputs": [
        {
          "internalType": "uint256",
          "name": "",
          "type": "uint256"
        }
      ],
      "payable": false,
      "stateMutability": "view",
      "type": "function"
    },
    {
      "constant": true,
      "inputs": [],
      "name": "votes_empty",
      "outputs": [
        {
          "internalType": "uint256",
          "name": "",
          "type": "uint256"
        }
      ],
      "payable": false,
      "stateMutability": "view",
      "type": "function"
    },
    {
      "constant": true,
      "inputs": [],
      "name": "votes_for",
      "outputs": [
        {
          "internalType": "uint256",
          "name": "",
          "type": "uint256"
        }
      ],
      "payable": false,
      "stateMutability": "view",
      "type": "function"
    },
    {
      "constant": true,
      "inputs": [
        {
          "internalType": "address",
          "name": "addr",
          "type": "address"
        }
      ],
      "name": "get_vote_cypher",
      "outputs": [
        {
          "internalType": "string",
          "name": "",
          "type": "string"
        }
      ],
      "payable": false,
      "stateMutability": "view",
      "type": "function"
    },
    {
      "constant": false,
      "inputs": [
        {
          "internalType": "string",
          "name": "vote",
          "type": "string"
        }
      ],
      "name": "set_vote",
      "outputs": [],
      "payable": false,
      "stateMutability": "nonpayable",
      "type": "function"
    },
    {
      "constant": false,
      "inputs": [
        {
          "internalType": "uint256",
          "name": "vf",
          "type": "uint256"
        },
        {
          "internalType": "uint256",
          "name": "va",
          "type": "uint256"
        },
        {
          "internalType": "uint256",
          "name": "ve",
          "type": "uint256"
        }
      ],
      "name": "set_result",
      "outputs": [],
      "payable": false,
      "stateMutability": "nonpayable",
      "type": "function"
    }
  ],
  "bytecode": "0x6080604052336000806101000a81548173ffffffffffffffffffffffffffffffffffffffff021916908373ffffffffffffffffffffffffffffffffffffffff16021790555034801561005057600080fd5b506040516109343803806109348339818101604052604081101561007357600080fd5b81019080805190602001909291908051906020019092919050505081600181905550806002819055505050610887806100ad6000396000f3fe608060405234801561001057600080fd5b506004361061009e5760003560e01c80638da5cb5b116100665780638da5cb5b146102755780639c6c4afd146102bf578063df07529214610301578063e6f9a0ac1461031f578063edf135e3146103dc5761009e565b8063359d393d146100a35780633e2d972d146100c15780634093b49c146100df5780636c8adfd0146100fd5780638b818f00146101b8575b600080fd5b6100ab6103fa565b6040518082815260200191505060405180910390f35b6100c9610400565b6040518082815260200191505060405180910390f35b6100e7610406565b6040518082815260200191505060405180910390f35b6101b66004803603602081101561011357600080fd5b810190808035906020019064010000000081111561013057600080fd5b82018360208201111561014257600080fd5b8035906020019184600183028401116401000000008311171561016457600080fd5b91908080601f016020809104026020016040519081016040528093929190818152602001838380828437600081840152601f19601f82011690508083019250505050505050919291929050505061040c565b005b6101fa600480360360208110156101ce57600080fd5b81019080803573ffffffffffffffffffffffffffffffffffffffff1690602001909291905050506104ca565b6040518080602001828103825283818151815260200191508051906020019080838360005b8381101561023a57808201518184015260208101905061021f565b50505050905090810190601f1680156102675780820380516001836020036101000a031916815260200191505b509250505060405180910390f35b61027d6105ab565b604051808273ffffffffffffffffffffffffffffffffffffffff1673ffffffffffffffffffffffffffffffffffffffff16815260200191505060405180910390f35b6102ff600480360360608110156102d557600080fd5b810190808035906020019092919080359060200190929190803590602001909291905050506105d0565b005b61030961068f565b6040518082815260200191505060405180910390f35b6103616004803603602081101561033557600080fd5b81019080803573ffffffffffffffffffffffffffffffffffffffff169060200190929190505050610695565b6040518080602001828103825283818151815260200191508051906020019080838360005b838110156103a1578082015181840152602081019050610386565b50505050905090810190601f1680156103ce5780820380516001836020036101000a031916815260200191505b509250505060405180910390f35b6103e4610745565b6040518082815260200191505060405180910390f35b60055481565b60015481565b60045481565b6001544211801561041e575060025442105b610473576040517f08c379a000000000000000000000000000000000000000000000000000000000815260040180806020018281038252602f8152602001806107f1602f913960400191505060405180910390fd5b80600360003373ffffffffffffffffffffffffffffffffffffffff1673ffffffffffffffffffffffffffffffffffffffff16815260200190815260200160002090805190602001906104c692919061074b565b5050565b6060600360008373ffffffffffffffffffffffffffffffffffffffff1673ffffffffffffffffffffffffffffffffffffffff1681526020019081526020016000208054600181600116156101000203166002900480601f01602080910402602001604051908101604052809291908181526020018280546001816001161561010002031660029004801561059f5780601f106105745761010080835404028352916020019161059f565b820191906000526020600020905b81548152906001019060200180831161058257829003601f168201915b50505050509050919050565b6000809054906101000a900473ffffffffffffffffffffffffffffffffffffffff1681565b6000809054906101000a900473ffffffffffffffffffffffffffffffffffffffff1673ffffffffffffffffffffffffffffffffffffffff163373ffffffffffffffffffffffffffffffffffffffff1614610675576040517f08c379a00000000000000000000000000000000000000000000000000000000081526004018080602001828103825260338152602001806108206033913960400191505060405180910390fd5b826004819055508160058190555080600681905550505050565b60025481565b60036020528060005260406000206000915090508054600181600116156101000203166002900480601f01602080910402602001604051908101604052809291908181526020018280546001816001161561010002031660029004801561073d5780601f106107125761010080835404028352916020019161073d565b820191906000526020600020905b81548152906001019060200180831161072057829003601f168201915b505050505081565b60065481565b828054600181600116156101000203166002900490600052602060002090601f016020900481019282601f1061078c57805160ff19168380011785556107ba565b828001600101855582156107ba579182015b828111156107b957825182559160200191906001019061079e565b5b5090506107c791906107cb565b5090565b6107ed91905b808211156107e95760008160009055506001016107d1565b5090565b9056fe546869732066756e6374696f6e206973207265737472696374656420746f20616e206f70656e20636f6e7472616374546869732066756e6374696f6e206973207265737472696374656420746f2074686520636f6e74726163742773206f776e6572a265627a7a7231582087987dde5805e4264d4e0b7873d385e354ec2dd4944265ce8fc10e65dc6bcad764736f6c63430005100032",
  "source": "// SPDX-License-Identifier: MIT\npragma solidity >=0.4.22 <0.8.0;\n\ncontract Meeting {\n  address public owner = msg.sender;\n  uint public time_begin;\n  uint public time_end;\n  mapping(address => string) public cyphered_votes;\n  uint public votes_for;\n  uint public votes_against;\n  uint public votes_empty;\n\n  modifier restricted() {\n    require(\n      msg.sender == owner,\n      \"This function is restricted to the contract's owner\"\n    );\n    _;\n  }\n\n  modifier open() {\n    require(\n      block.timestamp > time_begin && block.timestamp < time_end,\n      \"This function is restricted to an open contract\"\n    );\n    _;\n  }\n\n  modifier after_end() {\n    require(\n      block.timestamp > time_end,\n      \"This function is restricted to a finished contract\"\n    );\n    _;\n  }\n\n  constructor(uint tb, uint te) public {\n    time_begin = tb;\n    time_end = te;\n  }\n\n  function get_vote_cypher(address addr) public view returns (string memory) {\n    return cyphered_votes[addr];\n  }\n\n  function set_vote(string memory vote) public open {\n    cyphered_votes[msg.sender] = vote;\n  }\n\n  function set_result(uint vf, uint va, uint ve) public restricted {\n    votes_for = vf;\n    votes_against = va;\n    votes_empty = ve;\n  }\n}\n",
  "sourcePath": "C:/Users/ANote/Desktop/stampify-infrachain-smartvoting-server/contracts/Meeting.sol",
  "compiler": {
    "name": "solc",
    "version": "0.5.16+commit.9c3226ce.Emscripten.clang"
  },
  "schemaVersion": "3.2.5",
  "updatedAt": "2020-09-24T07:01:32.130Z",
  "devdoc": {
    "methods": {}
  },
  "userdoc": {
    "methods": {}
  }
}